:10000000B4C00000CDC00000CBC00000C9C00000DB
:10001000C7C00000C5C00000C3C00000C1C00000D0
:10002000BFC00000BDC00000BBC00000B9C00000E0
:10003000FCC00000B5C00000B3C00000D3C0000089
:10004000AFC00000ADC00000ABC00000A9C0000000
:10005000A7C00000A5C00000A3C00000A1C0000010
:100060009FC000009DC000009BC0000099C0000020
:1000700097C0000095C0000093C0000091C0000030
:100080008FC000008DC000008BC00000F700F4009E
:10009000F000EC00E800E400E000DC00D800D40050
:1000A000660162015E015A01560152014E014A0188
:1000B000470143013F013B01360132012E012A0174
:1000C000250121011D01180114010F010A0105017B
:1000D0000001FB006492927D6C92926D809EA0C1A3
:1000E0007C92924DE4A2A29D182848FF4492926D02
:1000F000468A926342FE037C92A27D868A92A2C3C4
:10010000E0100E10E1C6281028C7FC021C02FDF802
:10011000040204F9FC0202FD8080FE808164929258
:100120004DFE9098677C828A7C03FE9090617C8271
:10013000827DFE2010FFFE403040FFFE020203FEE3
:100140001028C7040202FD82FE83FE1010FF7C828D
:10015000925DFE909081FE929283FE82827D7C82EF
:100160008245FE92926D7E90907F11241FBECFEF4C
:10017000D0E1DEBFCDBF11E0A0E0B1E0E6E1F4E008
:1001800002C005900D92AC30B107D9F711E0ACE098
:10019000B1E001C01D92A132B107E1F71AD039C117
:1001A0002FCF80E881BF83B783BF83B783BF83B777
:1001B000846083BF87B7826087BF089588E59BE12D
:1001C0009BBD8ABD1FBC8DE08EBD87B7806187BF98
:1001D00008954ED080E091E087D0E3DFEFDF7894A0
:1001E0000000FECF1F920F920FB60F9211242F9393
:1001F0003F934F935F936F937F938F939F93AF93AF
:10020000BF93EF93FF9349D0FF91EF91BF91AF91CF
:100210009F918F917F916F915F914F913F912F911E
:100220000F900FBE0F901F9018951F920F920FB650
:100230000F9211242F933F934F935F936F937F936C
:100240008F939F93AF93BF93EF93FF9352D0FF9100
:10025000EF91BF91AF919F918F917F916F915F913E
:100260004F913F912F910F900FBE0F901F901895B7
:100270008FEF8ABB8FE784BB87E08093640080E0C8
:1002800090E0FC01EE0FFF1FED5EFE4F1182108229
:10029000019687309105A9F7089580910C018F5F31
:1002A000873019F080930C0102C010920C018091EC
:1002B0000C0180936500E0910C01F0E0EE0FFF1F50
:1002C000ED5EFE4F8081918180958BBBE0910C01AA
:1002D000F0E0EE0FFF1FED5EFE4F80819181892FD0
:1002E0008F77809585BB08959093100180930F01BF
:1002F0000895CF93DF93E0911101F09112013097AF
:1003000079F0649160FF05C0109212011092110102
:1003100005C03196F0931201E0931101A0E04BC0AB
:10032000E0910D01F0910E01309791F1CF0101960E
:1003300090930E0180930D01E081E11105C01092B0
:100340000E0110920D0135C08FE98E0F8A3130F405
:10035000F0E0EE0FFF1FE252F04013C08FEB8E0F64
:100360008A3130F4F0E0EE0FFF1FE25EFF4F09C06C
:1003700080ED8E0F8A30E8F4F0E0EE0FFF1FE45DB1
:10038000FF4F85919491909312018093110111C0B8
:1003900080910F0190911001A1E0009709F0A0E079
:1003A00090930E0180930D011092100110920F0195
:1003B00001C0A0E060E020E030E070E0F901EE0F65
:1003C000FF1FED5EFE4F40815181C9010796EB0191
:1003D00002C0CC0FDD1F8A95E2F7CE01882790740A
:1003E00056954795842B952B91838083AA2329F0DA
:1003F0004081518181E0452B09F080E0A82F2F5FDB
:100400003F4F27303105D1F691E08927DF91CF9119
:060410000895F894FFCFEF
:0C04160048656C6C6F20576F726C6400BE
:00000001FF
