:1000000045C000005EC000005CC000005AC0000097
:1000100058C0000056C0000054C0000052C000008C
:1000200050C000004EC000004CC000004AC000009C
:10003000A4C0000046C0000044C0000066C000002C
:1000400040C000003EC000003CC000003AC00000BC
:1000500038C0000036C0000034C0000032C00000CC
:1000600030C000002EC000002CC000002AC00000DC
:1000700028C0000026C0000024C0000022C00000EC
:1000800020C000001EC000001CC0000011241FBEC4
:10009000CFEFD0E1DEBFCDBF11E0A0E0B1E0EEEDEB
:1000A000F1E002C005900D92AA30B107D9F711E036
:1000B000AAE0B1E001C01D92AD30B107E1F71AD05E
:1000C0008CC09ECF84E89EE19BBD8ABD1FBC8DE0A5
:1000D0008EBD87B7806187BF08958FEF81BF83B7DB
:1000E00083BF83B783BF83B7866083BF87B78260D0
:1000F00087BF08958AB3806F8ABB84B3806F84BB47
:10010000ECDFE0DF78940000FECF1F920F920FB675
:100110000F9211242F933F938F939F93EF93FF930D
:10012000AF9B03C0E0910B0102C0E0910C01EA30EB
:10013000B0F48BB38F708BBB2BB3F0E0E050FF4F6C
:100140008081982F907F922B9BBB95B39F7895BB16
:1001500025B330E1839FC0011124282B25BB85B333
:10016000805885BBFF91EF919F918F913F912F9187
:100170000F900FBE0F901F9018951F920F920FB601
:100180000F9211246F937F938F939F9380910A0115
:10019000833620F48F5F80930A0102C010920A0117
:1001A00080910A016AE00DD080930C0190930B01BD
:1001B0009F918F917F916F910F900FBE0F901F9025
:1001C0001895991B79E004C0991F961708F0961BA3
:0E01D000881F7A95C9F780950895F894FFCF9F
:0A01DE00F360B5F466D6D770F7762B
:00000001FF
